{
  "abi": [
    {
      "inputs": [
        {
          "internalType": "string",
          "name": "_name",
          "type": "string"
        }
      ],
      "stateMutability": "nonpayable",
      "type": "constructor"
    },
    {
      "anonymous": false,
      "inputs": [
        {
          "indexed": false,
          "internalType": "uint256",
          "name": "id",
          "type": "uint256"
        },
        {
          "indexed": false,
          "internalType": "string",
          "name": "title",
          "type": "string"
        },
        {
          "indexed": false,
          "internalType": "string",
          "name": "hash",
          "type": "string"
        }
      ],
      "name": "TaskCreated",
      "type": "event"
    },
    {
      "anonymous": false,
      "inputs": [
        {
          "indexed": false,
          "internalType": "uint256",
          "name": "id",
          "type": "uint256"
        }
      ],
      "name": "TaskDeleted",
      "type": "event"
    },
    {
      "anonymous": false,
      "inputs": [
        {
          "indexed": false,
          "internalType": "uint256",
          "name": "id",
          "type": "uint256"
        },
        {
          "indexed": false,
          "internalType": "string",
          "name": "title",
          "type": "string"
        },
        {
          "indexed": false,
          "internalType": "string",
          "name": "hash",
          "type": "string"
        },
        {
          "indexed": false,
          "internalType": "bool",
          "name": "completed",
          "type": "bool"
        }
      ],
      "name": "TaskUpdated",
      "type": "event"
    },
    {
      "inputs": [
        {
          "internalType": "string",
          "name": "title",
          "type": "string"
        },
        {
          "internalType": "string",
          "name": "hash",
          "type": "string"
        }
      ],
      "name": "createTask",
      "outputs": [],
      "stateMutability": "nonpayable",
      "type": "function"
    },
    {
      "inputs": [
        {
          "internalType": "uint256",
          "name": "taskId",
          "type": "uint256"
        }
      ],
      "name": "deleteTask",
      "outputs": [],
      "stateMutability": "nonpayable",
      "type": "function"
    },
    {
      "inputs": [
        {
          "internalType": "string",
          "name": "hash",
          "type": "string"
        }
      ],
      "name": "fetchTask",
      "outputs": [
        {
          "components": [
            {
              "internalType": "uint256",
              "name": "id",
              "type": "uint256"
            },
            {
              "internalType": "string",
              "name": "title",
              "type": "string"
            },
            {
              "internalType": "string",
              "name": "description",
              "type": "string"
            },
            {
              "internalType": "bool",
              "name": "completed",
              "type": "bool"
            },
            {
              "internalType": "bool",
              "name": "exists",
              "type": "bool"
            }
          ],
          "internalType": "struct Todo.Task",
          "name": "",
          "type": "tuple"
        }
      ],
      "stateMutability": "view",
      "type": "function"
    },
    {
      "inputs": [],
      "name": "fetchTasks",
      "outputs": [
        {
          "components": [
            {
              "internalType": "uint256",
              "name": "id",
              "type": "uint256"
            },
            {
              "internalType": "string",
              "name": "title",
              "type": "string"
            },
            {
              "internalType": "string",
              "name": "description",
              "type": "string"
            },
            {
              "internalType": "bool",
              "name": "completed",
              "type": "bool"
            },
            {
              "internalType": "bool",
              "name": "exists",
              "type": "bool"
            }
          ],
          "internalType": "struct Todo.Task[]",
          "name": "",
          "type": "tuple[]"
        }
      ],
      "stateMutability": "view",
      "type": "function"
    },
    {
      "inputs": [],
      "name": "name",
      "outputs": [
        {
          "internalType": "string",
          "name": "",
          "type": "string"
        }
      ],
      "stateMutability": "view",
      "type": "function"
    },
    {
      "inputs": [],
      "name": "owner",
      "outputs": [
        {
          "internalType": "address",
          "name": "",
          "type": "address"
        }
      ],
      "stateMutability": "view",
      "type": "function"
    },
    {
      "inputs": [
        {
          "internalType": "uint256",
          "name": "taskId",
          "type": "uint256"
        },
        {
          "internalType": "string",
          "name": "hash",
          "type": "string"
        }
      ],
      "name": "setCompletedTask",
      "outputs": [],
      "stateMutability": "nonpayable",
      "type": "function"
    },
    {
      "inputs": [
        {
          "internalType": "string",
          "name": "_name",
          "type": "string"
        }
      ],
      "name": "updateName",
      "outputs": [],
      "stateMutability": "nonpayable",
      "type": "function"
    },
    {
      "inputs": [
        {
          "internalType": "uint256",
          "name": "taskId",
          "type": "uint256"
        },
        {
          "internalType": "string",
          "name": "title",
          "type": "string"
        },
        {
          "internalType": "string",
          "name": "hash",
          "type": "string"
        },
        {
          "internalType": "bool",
          "name": "completed",
          "type": "bool"
        }
      ],
      "name": "updateTask",
      "outputs": [],
      "stateMutability": "nonpayable",
      "type": "function"
    }
  ],
  "bytecode": {
    "object": "0x60806040523480156200001157600080fd5b506040516200166038038062001660833981016040819052620000349162000072565b6000620000428282620001d6565b5050600180546001600160a01b03191633179055620002a2565b634e487b7160e01b600052604160045260246000fd5b600060208083850312156200008657600080fd5b82516001600160401b03808211156200009e57600080fd5b818501915085601f830112620000b357600080fd5b815181811115620000c857620000c86200005c565b604051601f8201601f19908116603f01168101908382118183101715620000f357620000f36200005c565b8160405282815288868487010111156200010c57600080fd5b600093505b8284101562000130578484018601518185018701529285019262000111565b600086848301015280965050505050505092915050565b600181811c908216806200015c57607f821691505b6020821081036200017d57634e487b7160e01b600052602260045260246000fd5b50919050565b601f821115620001d157600081815260208120601f850160051c81016020861015620001ac5750805b601f850160051c820191505b81811015620001cd57828155600101620001b8565b5050505b505050565b81516001600160401b03811115620001f257620001f26200005c565b6200020a8162000203845462000147565b8462000183565b602080601f831160018114620002425760008415620002295750858301515b600019600386901b1c1916600185901b178555620001cd565b600085815260208120601f198616915b82811015620002735788860151825594840194600190910190840162000252565b5085821015620002925787850151600019600388901b60f8161c191681555b5050505050600190811b01905550565b6113ae80620002b26000396000f3fe608060405234801561001057600080fd5b50600436106100935760003560e01c806384da92a71161006657806384da92a7146100f15780638da5cb5b14610104578063ca7df5181461012f578063ce08bb6314610142578063fb42ff4d1461015757600080fd5b806306fdde0314610098578063292a4585146100b6578063560f3192146100cb57806367852586146100de575b600080fd5b6100a0610177565b6040516100ad9190610c2f565b60405180910390f35b6100c96100c4366004610cec565b610205565b005b6100c96100d9366004610d50565b610332565b6100c96100ec366004610d69565b610470565b6100c96100ff366004610dee565b610609565b600154610117906001600160a01b031681565b6040516001600160a01b0390911681526020016100ad565b6100c961013d366004610e2b565b610619565b61014a610783565b6040516100ad9190610ec5565b61016a610165366004610dee565b6109d5565b6040516100ad9190610f27565b6000805461018490610f3a565b80601f01602080910402602001604051908101604052809291908181526020018280546101b090610f3a565b80156101fd5780601f106101d2576101008083540402835291602001916101fd565b820191906000526020600020905b8154815290600101906020018083116101e057829003601f168201915b505050505081565b6001546001600160a01b0316331461021c57600080fd5b60025461022a906001610f8a565b600281905560008181526003602052604090209081556001810161024e8482610ff2565b5060038101805461ffff191661010017905560405181906004906102739085906110b2565b90815260405190819003602001902081548155600180820190610298908401826110ce565b506002818101906102ab908401826110ce565b506003918201805491909201805460ff19811660ff93841615159081178355935461ffff1990911661ff0019909416939093176101009384900490921615159092021790556002546040517f3aa7994277fd1283665573abffa8b1ef095947ad76908721a82ac157e8953d5a9161032591869086906111a9565b60405180910390a1505050565b6001546001600160a01b0316331461034957600080fd5b600081815260036020819052604090912090810154610100900460ff166103ad5760405162461bcd60e51b81526020600482015260146024820152732a30b9b5903237b2b9903737ba1032bc34b9ba1760611b604482015260640160405180910390fd5b6004816001016040516103c091906111de565b90815260405190819003602001902060008082556103e16001830182610b89565b6103ef600283016000610b89565b506003908101805461ffff191690556000838152602091909152604081208181559061041e6001830182610b89565b61042c600283016000610b89565b50600301805461ffff191690556040518281527fd078b251d950cc55c44340be1db732337ef4939a76e1367ee271ad2cb19c46af9060200160405180910390a15050565b6001546001600160a01b0316331461048757600080fd5b6000848152600360205260409020600181016104a38582610ff2565b506003818101805460ff19168415151790556000868152602091909152604090208154815581906001818101906104dc908401826110ce565b506002818101906104ef908401826110ce565b506003918201805491909201805460ff19811660ff93841615159081178355935461ffff1990911661ff00199094169390931761010093849004909216151590920217905560405181906004906105479086906110b2565b9081526040519081900360200190208154815560018082019061056c908401826110ce565b5060028181019061057f908401826110ce565b506003918201805491909201805460ff19811660ff93841615159081178355935461ffff1990911661ff00199094169390931761010093849004909216151590920217905580546040517f6db818a3525eee1a2adc73fad332a8f584e76319c58cf349df6baf078261e41e916105fa91879087908790611254565b60405180910390a15050505050565b60006106158282610ff2565b5050565b6001546001600160a01b0316331461063057600080fd5b6000828152600360208190526040909120908101805460ff1916600190811790915581908190810161066281806110ce565b50600281810190610675908401826110ce565b506003918201805491909201805460ff19811660ff93841615159081178355935461ffff1990911661ff00199094169390931761010093849004909216151590920217905560405181906004906106cd9085906110b2565b908152604051908190036020019020815481556001808201906106f2908401826110ce565b50600281810190610705908401826110ce565b506003918201805491909201805460ff19811660ff93841615159081178355935461ffff1990911661ff00199094169390931761010093849004909216151590920217905580546040517f6db818a3525eee1a2adc73fad332a8f584e76319c58cf349df6baf078261e41e9161032591600185810191879190611293565b60025460609060008167ffffffffffffffff8111156107a4576107a4610c49565b60405190808252806020026020018201604052801561080b57816020015b6107f86040518060a001604052806000815260200160608152602001606081526020016000151581526020016000151581525090565b8152602001906001900390816107c25790505b50905060005b828110156109ce576000610826826001610f8a565b90506000600360008381526020019081526020016000209050806040518060a00160405290816000820154815260200160018201805461086590610f3a565b80601f016020809104026020016040519081016040528092919081815260200182805461089190610f3a565b80156108de5780601f106108b3576101008083540402835291602001916108de565b820191906000526020600020905b8154815290600101906020018083116108c157829003601f168201915b505050505081526020016002820180546108f790610f3a565b80601f016020809104026020016040519081016040528092919081815260200182805461092390610f3a565b80156109705780601f1061094557610100808354040283529160200191610970565b820191906000526020600020905b81548152906001019060200180831161095357829003601f168201915b50505091835250506003919091015460ff8082161515602084015261010090910416151560409091015284518590859081106109ae576109ae611349565b6020026020010181905250505080806109c69061135f565b915050610811565b5092915050565b610a0b6040518060a001604052806000815260200160608152602001606081526020016000151581526020016000151581525090565b600482604051610a1b91906110b2565b90815260200160405180910390206040518060a001604052908160008201548152602001600182018054610a4e90610f3a565b80601f0160208091040260200160405190810160405280929190818152602001828054610a7a90610f3a565b8015610ac75780601f10610a9c57610100808354040283529160200191610ac7565b820191906000526020600020905b815481529060010190602001808311610aaa57829003601f168201915b50505050508152602001600282018054610ae090610f3a565b80601f0160208091040260200160405190810160405280929190818152602001828054610b0c90610f3a565b8015610b595780601f10610b2e57610100808354040283529160200191610b59565b820191906000526020600020905b815481529060010190602001808311610b3c57829003601f168201915b50505091835250506003919091015460ff8082161515602084015261010090910416151560409091015292915050565b508054610b9590610f3a565b6000825580601f10610ba5575050565b601f016020900490600052602060002090810190610bc39190610bc6565b50565b5b80821115610bdb5760008155600101610bc7565b5090565b60005b83811015610bfa578181015183820152602001610be2565b50506000910152565b60008151808452610c1b816020860160208601610bdf565b601f01601f19169290920160200192915050565b602081526000610c426020830184610c03565b9392505050565b634e487b7160e01b600052604160045260246000fd5b600082601f830112610c7057600080fd5b813567ffffffffffffffff80821115610c8b57610c8b610c49565b604051601f8301601f19908116603f01168101908282118183101715610cb357610cb3610c49565b81604052838152866020858801011115610ccc57600080fd5b836020870160208301376000602085830101528094505050505092915050565b60008060408385031215610cff57600080fd5b823567ffffffffffffffff80821115610d1757600080fd5b610d2386838701610c5f565b93506020850135915080821115610d3957600080fd5b50610d4685828601610c5f565b9150509250929050565b600060208284031215610d6257600080fd5b5035919050565b60008060008060808587031215610d7f57600080fd5b84359350602085013567ffffffffffffffff80821115610d9e57600080fd5b610daa88838901610c5f565b94506040870135915080821115610dc057600080fd5b50610dcd87828801610c5f565b92505060608501358015158114610de357600080fd5b939692955090935050565b600060208284031215610e0057600080fd5b813567ffffffffffffffff811115610e1757600080fd5b610e2384828501610c5f565b949350505050565b60008060408385031215610e3e57600080fd5b82359150602083013567ffffffffffffffff811115610e5c57600080fd5b610d4685828601610c5f565b805182526000602082015160a06020850152610e8760a0850182610c03565b905060408301518482036040860152610ea08282610c03565b9150506060830151151560608501526080830151151560808501528091505092915050565b6000602080830181845280855180835260408601915060408160051b870101925083870160005b82811015610f1a57603f19888603018452610f08858351610e68565b94509285019290850190600101610eec565b5092979650505050505050565b602081526000610c426020830184610e68565b600181811c90821680610f4e57607f821691505b602082108103610f6e57634e487b7160e01b600052602260045260246000fd5b50919050565b634e487b7160e01b600052601160045260246000fd5b80820180821115610f9d57610f9d610f74565b92915050565b601f821115610fed57600081815260208120601f850160051c81016020861015610fca5750805b601f850160051c820191505b81811015610fe957828155600101610fd6565b5050505b505050565b815167ffffffffffffffff81111561100c5761100c610c49565b6110208161101a8454610f3a565b84610fa3565b602080601f831160018114611055576000841561103d5750858301515b600019600386901b1c1916600185901b178555610fe9565b600085815260208120601f198616915b8281101561108457888601518255948401946001909101908401611065565b50858210156110a25787850151600019600388901b60f8161c191681555b5050505050600190811b01905550565b600082516110c4818460208701610bdf565b9190910192915050565b8181036110d9575050565b6110e38254610f3a565b67ffffffffffffffff8111156110fb576110fb610c49565b6111098161101a8454610f3a565b6000601f82116001811461113d57600083156111255750848201545b600019600385901b1c1916600184901b1784556111a2565b600085815260209020601f19841690600086815260209020845b838110156111775782860154825560019586019590910190602001611157565b50858310156111955781850154600019600388901b60f8161c191681555b50505060018360011b0184555b5050505050565b8381526060602082015260006111c26060830185610c03565b82810360408401526111d48185610c03565b9695505050505050565b60008083546111ec81610f3a565b60018281168015611204576001811461121957611248565b60ff1984168752821515830287019450611248565b8760005260208060002060005b8581101561123f5781548a820152908401908201611226565b50505082870194505b50929695505050505050565b84815260806020820152600061126d6080830186610c03565b828103604084015261127f8186610c03565b915050821515606083015295945050505050565b84815260006020608081840152600086546112ad81610f3a565b80608087015260a06001808416600081146112cf57600181146112e957611317565b60ff1985168984015283151560051b890183019550611317565b8b6000528660002060005b8581101561130f5781548b82018601529083019088016112f4565b8a0184019650505b5050505050838103604085015261132e8187610c03565b92505050611340606083018415159052565b95945050505050565b634e487b7160e01b600052603260045260246000fd5b60006001820161137157611371610f74565b506001019056fea2646970667358221220e9e8d54fb9c8f1224ea4caf0f0679b4277f4d1598f234537776711a054c8f19a64736f6c63430008130033",
    "linkReferences": {}
  },
  "methodIdentifiers": {
    "createTask(string,string)": "292a4585",
    "deleteTask(uint256)": "560f3192",
    "fetchTask(string)": "fb42ff4d",
    "fetchTasks()": "ce08bb63",
    "name()": "06fdde03",
    "owner()": "8da5cb5b",
    "setCompletedTask(uint256,string)": "ca7df518",
    "updateName(string)": "84da92a7",
    "updateTask(uint256,string,string,bool)": "67852586"
  },
  "id": 19
}